:0100090022D4
:0A020C00EF1F70011E144E70F72260
:10013600AC06AD07D3ED9400EC940040147A007B36
:100146006EEB1B70011AEB4A70F7ED1D70E61C8012
:01015600E3C5
:010157002285
:0C01CC000212000002100000020E0000F1
:060003001201F00201FEF3
:10009A008C098D0A8B0BEF14600E14601224027007
:1000AA0011AF0A120158800AAF0A120175800312B1
:1000BA0001F0E50B24FC600C14600E2402700DAFF5
:0D00CA000D020192AF0D0201AF1201FE22E6
:10015800D292C2937512008F13D3E50F9513E50E53
:0D01680095125004D2928002C292C29322DE
:10017500C292D2937512008F13D3E50F9513E50E36
:0D01850095125004D2938002C293C29222C0
:0E01F000C292C293E4F512F513F510F5112238
:10019200D294C2957510008F11D3E50F9511E50E1B
:0D01A20095105004D2948002C294C29522A0
:1001AF00C294D2957510008F11D3E50F9511E50EFE
:0D01BF0095105004D2958002C295C2942282
:0E01FE00C294C295E4F512F513F510F5112226
:10011200D292C293D294C2951201E01200097516CE
:100122000C7FE87E031201367516127FE87E0312F9
:04013200013680EA28
:0301D80001160C01
:0401DB00021400000A
:1001E000758901758CFF758AA3D2AFD2A9D28C22F2
:03000B000200D719
:1000D700C0E0C0D0C28C758CFF758AA30515E515E5
:1000E70070020514C394C8E5149400400675140003
:1000F700751500D3E5159516E51494005004D290B4
:0B0107008002C290D28CD0D0D0E03239
:0300000002000EED
:0C000E00787FE4F6D8FD758116020055DD
:10001A00020112E493A3F8E493A34003F68001F2E9
:10002A0008DFF48029E493A3F85407240CC8C333E7
:10003A00C4540F4420C8834004F456800146F6DFB6
:10004A00E4800B01020408102040809001CCE47E79
:10005A00019360BCA3FF543F30E509541FFEE493AB
:10006A00A360010ECF54C025E060A840B8E493A372
:10007A00FAE493A3F8E493A3C8C582C8CAC583CA9D
:10008A00F0A3C8C582C8CAC583CADFE9DEE780BE55
:0101DF00001F
:00000001FF
