:0100090022D4
:0A027900EF1F70011E144E70F722F3
:10016800E4FBFAAC06AD07D3ED9400EC9400401420
:100178007A007B6EEB1B70011AEB4A70F7ED1D706D
:0A018800E61C80E3E4FFFE020279AA
:1001920002160000021400000212000002100064A5
:0600030012025102025F2F
:10009A008C218D228B23C3E5139511E5129510400F
:1000AA0005E4F512F513EF14600E146012240270C1
:1000BA0011AF221201B4800AAF221201D1800312B9
:1000CA000251E52324FC600C14600E2402700DAF6B
:0D00DA00250201EEAF2502020B12025F228B
:1001B400D292C2937516008F17D3E5139517E512E3
:0D01C40095165004D2928002C292C293227E
:1001D100C292D2937516008F17D3E5139517E512C6
:0D01E10095165004D2938002C293C2922260
:0E025100C292C293E4F516F517F514F51522C6
:1001EE00D294C2957514008F15D3E5139515E512AB
:0D01FE0095145004D2948002C294C2952240
:10020B00C294D2957514008F15D3E5139515E5128D
:0D021B0095145004D2958002C295C2942221
:0E025F00C294C295E4F516F517F514F51522B4
:1002280012026D751D0C7FE87E03120168751D12A0
:090238007FE87E0312016880EAF0
:1001A200021900C8021B0000011F12011E0C0118D7
:0101B2000F3D
:09028300E4F51BF51C751D942225
:10012F00C3E51C951AE51B95194005E4F51BF51C55
:10013F00EF14600C14600E2402700D12028C8008F4
:10014F001202948003120290D3E51C951DE51B94B7
:09015F00005003D29022C290224C
:04028C00851F1D228B
:04029000851E1D2288
:0402940085181D228A
:10024100758901758CFF758AA3D2AFD2A9D28C2290
:03000B000200E709
:1000E700C0E0C0F0C083C082C0D075D008C28C7594
:1000F7008CFF758AA30513E513700205127524009A
:100107007525647B037D647C00E4FF12009A051C5F
:10011700E51C7002051B7F0112012FD28CD0D0D0B5
:0801270082D083D0F0D0E03259
:0C026D0012028312000312000902024179
:0300000002000EED
:0C000E00787FE4F6D8FD758125020055CE
:10001A00020228E493A3F8E493A34003F68001F2D2
:10002A0008DFF48029E493A3F85407240CC8C333E7
:10003A00C4540F4420C8834004F456800146F6DFB6
:10004A00E4800B0102040810204080900192E47EB3
:10005A00019360BCA3FF543F30E509541FFEE493AB
:10006A00A360010ECF54C025E060A840B8E493A372
:10007A00FAE493A3F8E493A3C8C582C8CAC583CA9D
:10008A00F0A3C8C582C8CAC583CADFE9DEE780BE55
:0101B300004B
:00000001FF
