:01000A0022D3
:0A0E0500EF1F70011E144E70F7225B
:100C3800E4FBFAAC06AD07D3ED9400EC9400401445
:100C48007A007B6EEB1B70011AEB4A70F7ED1D7092
:0A0C5800E61C80E3E4FFFE020E0537
:080C8A00022C0000022A0064A4
:060E3900120E3F020E4400
:100B16008C198D1A8B1BC3E52D952BE52C952A4038
:100B260005E4F52CF52DEF14601014601624027000
:100B360015AF1AAE19120D2E800CAF1AAE19120D82
:100B4600448003120E3FE51B24FC600E1460122441
:100B5600027011AF1DAE1C020D5AAF1DAE1C020D68
:050B660070120E442294
:100D2E00D292C293D3E52D9FE52C9E5004D2928091
:060D3E0002C292C29322E2
:100D4400C292D293D3E52D9FE52C9E5004D293807A
:060D540002C293C29222CC
:050E3F00C292C29322E3
:100D5A00D294C295D3E52D9FE52C9E5004D294805F
:060D6A0002C294C29522B2
:100D7000C294D295D3E52D9FE52C9E5004D2958048
:060D800002C295C294229C
:050E4400C294C29522DA
:0C000E00787A69742D5869614A696500B0
:100BD800120D867BFF7A00790EE4FD7F14120E5504
:100BE800D292C293D294C295852927E531B401F0F7
:100BF800E4F531E52F75F00584FB7D027F0A120EBE
:030C08005B80DD31
:100C92000125C801260001290E0128120124100194
:020CA200270029
:07000300E4F5268524272205
:100C0B00E526B52503E4F526EF14600C14600E24DD
:100C1B0002700D120E498008120E4D8003120E51F8
:0D0C2B00E526D395275003D29022C29022D7
:040E490085292722AE
:040E4D0085282722AB
:040E510085242722AB
:090CA400013000012E00012F00B7
:100D1400758911758CFF758AA6758DFF758B4CD2FC
:0A0D2400AFD2A9D2ABD28CC28E224E
:03000B00020AB432
:100AB400C0E0C0F0C0D075D008C28C758CFF758AB8
:100AC400A60530E530C3940A4028753000052EE5AC
:100AD4002E2401FFE433FE7C007DC8120982ED70F0
:100AE40011F52E753101052FE52FC394FA400375D6
:100AF4002F000526E526B52503752600E526D395A2
:100B0400275004D2908002C290D28CD0D0D0F0D0A2
:020B1400E032CD
:03001B00020B6B6A
:100B6B00C0E0C0F0C083C082C0D075D010758DFFBF
:100B7B00758B4C052DE52D7002052C751C00751D14
:100B8B000A7B037D0A7C007F01120B16D0D0D0822A
:070B9B00D083D0F0D0E0325E
:0F0D8600120003120E3912000A120A4B020D144A
:10001E000000000000000000002F0000000007009C
:10002E00070000147F147F1400242A7F2A12006216
:10003E0064081323003649552250000005030000C2
:10004E0000001C224100000041221C000014083E4A
:10005E0008140008083E0808000000A06000000810
:10006E000808080800006060000000201008040264
:10007E00003E5149453E0000427F40000042615122
:10008E004946002141454B31001814127F100027BC
:10009E0045454539003C4A4949300001710905037F
:1000AE0000364949493600064949291E00003636B0
:1000BE000000000056360000000814224100001413
:1000CE0014141414000041221408000201510906F0
:1000DE0000324959513E007C1211127C007F494971
:1000EE004936003E41414122007F4141221C007FA2
:1000FE0049494941007F09090901003E4149497AB0
:10010E00007F0808087F0000417F41000020404129
:10011E003F01007F08142241007F40404040007F95
:10012E00020C027F007F0408107F003E4141413ED9
:10013E00007F09090906003E4151215E007F091921
:10014E0029460046494949310001017F0101003F1E
:10015E004040403F001F2040201F003F4038403F9E
:10016E000063140814630007087008070061514902
:10017E00454300007F4141000002040810200000AA
:10018E0041417F0000040201020400404040404013
:10019E00000001020400002054545478007F4844AB
:1001AE00443800384444442000384444487F0038E2
:1001BE005454541800087E0901020018A4A4A47C0B
:1001CE00007F080404780000447D400000408084D5
:1001DE007D00007F102844000000417F4000007C1D
:1001EE0004180478007C0804047800384444443829
:1001FE0000FC242424180018242418FC007C080475
:10020E00040800485454542000043F444020003C4D
:10021E004040207C001C2040201C003C4030403CD4
:10022E00004428102844001CA0A0A07C0044645464
:10023E004C441414141414140000000000000000A8
:10024E000000000000000000000000F800000000A8
:10025E00000000333000000000100C06100C0600E9
:10026E00000000000000000040C07840C078400050
:10027E00043F04043F040400007088FC08300000B2
:10028E00001820FF211E0000F008F000E01800000A
:10029E0000211C031E211E0000F0088870000000C3
:1002AE001E2123241927211010160E000000000015
:1002BE000000000000000000000000E01804020032
:1002CE00000000071820400000020418E0000000A3
:1002DE000040201807000000404080F080404000A1
:1002EE000202010F01020200000000F000000000F7
:1002FE000101011F010101000000000000000000CB
:10030E0080B070000000000000000000000000003F
:10031E0000010101010101010000000000000000C8
:10032E000030300000000000000000008060180463
:10033E00006018060100000000E010080810E00040
:10034E00000F102020100F00001010F80000000009
:10035E000020203F20200000007008080888700050
:10036E0000302824222130000030088888483000D0
:10037E000018202020110E000000C02010F80000F0
:10038E0000070424243F240000F808888808080089
:10039E000019212020110E0000E01088881800009E
:1003AE00000F112020110E0000380808C838080070
:1003BE000000003F000000000070880808887000F0
:1003CE00001C222121221C0000E010080810E00071
:1003DE000000312222110F00000000C0C0000000FA
:1003EE00000000303000000000000080000000001F
:1003FE000000806000000000000080402010080017
:10040E0000010204081020004040404040404000DF
:10041E0004040404040404000008102040800000BA
:10042E000020100804020100007048080808F000BF
:10043E000000003036010000C030C828E810E0008F
:10044E000718272423140B000000C038E00000001A
:10045E00203C23020227382008F888888870000084
:10046E00203F202020110E00C03008080808380058
:10047E00071820202010080008F808080810E000CF
:10048E00203F202020100F0008F88888E808100070
:10049E00203F20202320180008F88888E808100044
:1004AE00203F200003000000C0300808083800007C
:1004BE0007182020221E020008F808000008F8087D
:1004CE00203F210101213F20000808F80808000004
:1004DE000020203F2020000000000808F808080037
:1004EE00C08080807F00000008F888C028180800AF
:1004FE00203F20012638200008F8080000000000E8
:10050E00203F20202020300008F8F800F8F80800DE
:10051E00203F003F003F200008F830C00008F808D8
:10052E00203F200007183F00E01008080810E000E8
:10053E000F10202020100F0008F808080808F000FF
:10054E00203F210101010000E01008080810E00022
:10055E000F18242438504F0008F8888888887000B7
:10056E00203F2000030C3020007088080808380057
:10057E000038202121221C00180808F8080818004D
:10058E000000203F2000000008F808000008F808CE
:10059E00001F202020201F000878880000C838087F
:1005AE00000007380E010000F80800F80008F800F7
:1005BE00033C0700073C0300081868808068180891
:1005CE0020302C03032C30200838C800C83808000F
:1005DE000000203F2000000010080808C83808005E
:1005EE002038262120201800000000FE0202020002
:1005FE000000007F40404000000C30C000000000B2
:10060E00000000010638C00000020202FE000000D9
:10061E00004040407F00000000000402020204007F
:10062E0000000000000000000000000000000000BC
:10063E0080808080808080800002020400000000A4
:10064E00000000000000000000008080808000009C
:10065E000019242222223F2008F80080800000008A
:10066E00003F112020110E0000000080808000004D
:10067E00000E112020201100000000808088F8005C
:10068E00000E112020103F2000008080808000008E
:10069E00001F222222221300008080F088888818F2
:1006AE000020203F202000000000808080808000FD
:1006BE00006B94949493600008F800808080000092
:1006CE00203F210000203F2000809898000000006D
:1006DE000020203F2020000000000080989800009D
:1006EE0000C08080807F000008F8000080808000BD
:1006FE00203F24022D302000000808F800000000E2
:10070E000020203F2020000080808080808080009C
:10071E00203F20003F20003F80800080808000002E
:10072E00203F210000203F200000808080800000BC
:10073E00001F202020201F008080008080000000ED
:10074E0080FFA12020110E0000000080808080001C
:10075E00000E112020A0FF8080808000808080000D
:10076E0020203F212000010000008080808080003A
:10077E000033242424241900008080E080800000AF
:10078E000000001F202000008080000000808000FC
:10079E00001F202020103F2080808000008080805D
:1007AE0000010E30080601008080008000808080ED
:1007BE000F300C030C300F00008080008080800012
:1007CE000020312E0E31200080808000008080803D
:1007DE0080818E70180601000080808080808000ED
:1007EE000021302C2221300000000000807C02020B
:1007FE0000000000003F404000000000FF0000002D
:10080E0000000000FF0000000002027C80000000DB
:10081E000040403F000000000006010102020404F7
:08082E000000000000000000C2
:030CAD0001310012
:100CD6007E08C286C283AD061EED6015EF30E704BE
:100CE600D2848002C284D28300C283EF25E0FF80D3
:010CF600E518
:010CF70022DA
:060C62003EF583E493FF60
:100C68007E08D286C283AD061EED6015EF30E7041C
:100C7800D2848002C284D28300C283EF25E0FF8041
:010C8800E586
:010C89002248
:100CF800AC07ED24B0FF120CD6EC54F0C4540F44EA
:0C0D080010FF120CD6EC540FFF020CD6AA
:070E0F00EF44AEFF020CD618
:0C0DB100AC077FD5120CD6AF04020CD6A4
:0C0DBD00AC077FA8120CD6AF04020CD6C5
:0C0DC900AC077FD3120CD6AF04020CD68E
:070E1600EF4440FF020CD67F
:0C0DD500AC077F20120CD6AF04020CD635
:0E0D9500AC077F8D120CD6EC4410FF020CD67A
:070E1D00EF44A0FF020CD618
:070E2400EF44C0FF020CD6F1
:0E0DA300AC077FDA120CD6EC4402FF020CD62D
:0C0DE100AC077F81120CD6AF04020CD6C8
:0C0DED00AC077FD9120CD6AF04020CD664
:0C0DF900AC077FDB120CD6AF04020CD656
:070E2B00EF44A4FF020CD606
:070E3200EF44A6FF020CD6FD
:020CB100AC078E
:100CB300E4FBEB24B0FF120CD6E4FF120CD67F103A
:100CC300120CD6E4FAAF04120C680ABA80F70BBB15
:020CD30008E037
:010CD50022FC
:100A4B00D283C285E4FF000FBF64FBD285E4FF12A3
:100A5B000E0F7F80120DB17F3F120DBDE4FF120D03
:100A6B00C9E4FF120E167F04120D957F02120DD5ED
:100A7B007F01120E1D7F08120E247F10120DA37F13
:100A8B00CF120DE17FF1120DED7F40120DF9E4FF56
:100A9B00120E2BE4FF120E327F01120E0FE4FF1227
:080AAB000CB1E4FDFF120CF890
:010AB3002220
:0A0836008F1E8D1F8B208A2189225E
:10084000E51F25E0F51FE4F523AB20AA21A92285A9
:100850002382758300120955606E24E0FBE51ED3E8
:1008600094784007E4F51E051F051FAD1FAF1E124B
:100870000CF8E4FCEB75F010A4FFEC7583002FFF7F
:10088000E58335F0FE74462FF5827402120C620C7B
:10089000BC08E1E51F04FDAF1E120CF8E4FCEB758B
:1008A000F010A4FFEC7583002FFFE58335F0FE7494
:1008B0004E2FF5827402120C620CBC08E1740825FC
:0808C0001EF51E052302084984
:0108C800220D
:050BA200AD022430FB50
:100BA700EB24E0FBEFD3947A4003E4FF0D120CF83B
:100BB700E4FC75F006EBA4241EF582E5F03400F59D
:100BC70083E5822CF582E43583120C630CBC06E2C4
:010BD70022FB
:0609D7008B1EAA05A90712
:1009DD00C3E51E6480948050167B2D120BA7AF1EAD
:1009ED00EF3395E0FEC3E49FFFE49E8F218011AFAE
:1009FD0001AD027B2B120BA7AF1EEF3395E08F21BC
:100A0D00E52175F06484FEE52175F06484E5F075EB
:100A1D00F00A84F51FE52175F00A8485F020E9249C
:100A2D0006FFEE120BA2E9240CFFE51F120BA2E943
:0D0A3D002412FFAD02E5202430FB120BA7B0
:010A4A002289
:030E55000208365A
:030E5800020BA7E3
:030E5B000209D7B2
:030000000208C92A
:0C08C900787FE4F6D8FD7581310209103B
:10095500BB010CE58229F582E5833AF583E0225057
:1009650006E92582F8E622BBFE06E92582F8E222A1
:0D097500E58229F582E5833AF583E49322BB
:10098200BC000BBE0029EF8DF084FFADF022E4CC59
:10099200F875F008EF2FFFEE33FEEC33FCEE9DEC22
:1009A200984005FCEE9DFE0FD5F0E9E4CEFD22ED68
:1009B200F8F5F0EE8420D21CFEADF075F008EF2FB2
:1009C200FFED33FD4007985006D5F0F222C398FDA3
:0509D2000FD5F0EA2240
:1008D500020BD8E493A3F8E493A34003F68001F256
:1008E50008DFF48029E493A3F85407240CC8C33324
:1008F500C4540F4420C8834004F456800146F6DFF3
:10090500E4800B0102040810204080900C8AE47EEC
:10091500019360BCA3FF543F30E509541FFEE493E7
:10092500A360010ECF54C025E060A840B8E493A3AE
:10093500FAE493A3F8E493A3C8C582C8CAC583CAD9
:10094500F0A3C8C582C8CAC583CADFE9DEE780BE91
:010CB0000043
:00000001FF
