:01000A0022D3
:0A026500EF1F70011E144E70F72207
:10016300E4FBFAAC06AD07D3ED9400EC9400401425
:100173007A007B6EEB1B70011AEB4A70F7ED1D7072
:0A018300E61C80E3E4FFFE020265C3
:0801D80002200000021E006479
:06026F0012027502027A82
:1000AA008C198D1A8B1BC3E521951FE520951E40DF
:1000BA0005E4F520F521EF1460101460162402708F
:1000CA0015AF1AAE1912020D800CAF1AAE19120230
:1000DA00238003120275E51B24FC600E14601224AF
:1000EA00027011AF1DAE1C020239AF1DAE1C020216
:0500FA004F12027A2202
:10020D00D292C293D3E5219FE5209E5004D29280D5
:06021D0002C292C293220E
:10022300C292D293D3E5219FE5209E5004D29380BE
:0602330002C293C29222F8
:05027500C292C29322B9
:10023900D294C295D3E5219FE5209E5004D29480A3
:0602490002C294C29522DE
:10024F00C294D295D3E5219FE5209E5004D295808C
:06025F0002C295C29422C8
:05027A00C294C29522B0
:1001B70012000E850D0B7FC87E00120163850C0BA4
:1001C7007FC87E00120163D292C293D294C29580F7
:0101D700E245
:1001E0000109C8010A00010D0E010C1201081001DD
:0201F0000B0002
:07000300E4F50A85080B2259
:10013600E50AB50903E4F50AEF14600C14600E2411
:1001460002700D12027F800812028380031202875A
:0D015600E50AD3950B5003D29022C29022EF
:04027F00850D0B22BC
:04028300850C0B22B9
:0402870085080B22B9
:1001F300758911758CFF758AA6758DFF758B4CD229
:0A020300AFD2A9D2ABD28CC28E227A
:03000B0002018D62
:10018D00C0E0C0D0C28C758CFF758AA6050AE50A41
:10019D00B50903750A00E50AD3950B5004D290807A
:0A01AD0002C290D28CD0D0D0E03214
:03001B000200FFE1
:1000FF00C0E0C0F0C083C082C0D075D010758DFF36
:10010F00758B4C0521E52170020520751C00751DAE
:10011F000A7B037D0A7C007F011200AAD0D0D08217
:07012F00D083D0F0D0E032D4
:0C000E0012000312026F12000A0201F33C
:0300000002001EDD
:0C001E00787FE4F6D8FD758121020065B2
:10002A000201B7E493A3F8E493A34003F68001F234
:10003A0008DFF48029E493A3F85407240CC8C333D7
:10004A00C4540F4420C8834004F456800146F6DFA6
:10005A00E4800B01020408102040809001D8E47E5D
:10006A00019360BCA3FF543F30E509541FFEE4939B
:10007A00A360010ECF54C025E060A840B8E493A362
:10008A00FAE493A3F8E493A3C8C582C8CAC583CA8D
:10009A00F0A3C8C582C8CAC583CADFE9DEE780BE45
:0101F200000C
:00000001FF
