:030C2400012900A3
:100D5B00759850438920758DFDD28EC2ABD2AC22D3
:080003008F993099FDC299228A
:10000E0012083EFF600C120003740129F9E43AFA5B
:03001E0080EE224F
:03002300020E11B9
:090E1100309805C2988599293238
:0A0E0700EF1F70011E144E70F72259
:100C4E00E4FBFAAC06AD07D3ED9400EC940040142F
:100C5E007A007B6EEB1B70011AEB4A70F7ED1D707C
:0A0C6E00E61C80E3E4FFFE020E071F
:080C2700022400000222006417
:060E4B00120E51020E56CA
:100B37008C118D128B13C3E5259523E5249522404F
:100B470005E4F524F525EF146010146016240270EF
:100B570015AF12AE11120D03800CAF12AE11120DAC
:100B6700198003120E51E51324FC600E1460122441
:100B7700027011AF15AE14020D2FAF15AE14020D92
:050B870045120E56228C
:100D0300D292C293D3E5259FE5249E5004D29280CC
:060D130002C292C293220D
:100D1900C292D293D3E5259FE5249E5004D29380B5
:060D290002C293C29222F7
:050E5100C292C29322D1
:100D2F00D294C295D3E5259FE5249E5004D294809A
:060D3F0002C294C29522DD
:100D4500C294D295D3E5259FE5249E5004D2958083
:060D550002C295C29422C7
:050E5600C294C29522C8
:0D0DA600787A69742D586961204A696500EA
:100BC200120D7B7FF47E01120C4E7BFF7A0D79A60B
:100BD200E4FD7F14120E67D292C293D294C295851D
:100BE2001B19E52AB401F0E4F52AAB297D027F0A3C
:050BF200120E6A80E212
:100C2F000117C8011800011B0E011A12011610013D
:020C3F0019009A
:070E1A00E4F518851619220A
:100BF700E518B51703E4F518EF14600C14600E241C
:100C070002700D120E5B8008120E5F8003120E63D6
:0D0C1700E518D395195003D29022C2902207
:040E5B00851B1922B8
:040E5F00851A1922B5
:040E630085161922B5
:090C410001280001260001270032
:100D6B00438901758CFF758AA6D2AFD2A9D28C228A
:03000B00020AD511
:100AD500C0E0C0F0C0D075D008C28C758CFF758A97
:100AE500A60528E528C3940A40287528000526E5AB
:100AF500262401FFE433FE7C007DC8120884ED70D6
:100B050011F526752A010527E527C394FA400375D3
:100B150027000518E518B51703751800E518D395CE
:100B2500195004D2908002C290D28CD0D0D0F0D08F
:020B3500E032AC
:0F0D7B00120E1A120E4B120A6C120D5B020D6B48
:100026000000000000000000002F00000000070094
:10003600070000147F147F1400242A7F2A1200620E
:1000460064081323003649552250000005030000BA
:1000560000001C224100000041221C000014083E42
:1000660008140008083E0808000000A06000000808
:10007600080808080000606000000020100804025C
:10008600003E5149453E0000427F4000004261511A
:100096004946002141454B31001814127F100027B4
:1000A60045454539003C4A49493000017109050377
:1000B60000364949493600064949291E00003636A8
:1000C600000000005636000000081422410000140B
:1000D60014141414000041221408000201510906E8
:1000E60000324959513E007C1211127C007F494969
:1000F6004936003E41414122007F4141221C007F9A
:1001060049494941007F09090901003E4149497AA7
:10011600007F0808087F0000417F41000020404121
:100126003F01007F08142241007F40404040007F8D
:10013600020C027F007F0408107F003E4141413ED1
:10014600007F09090906003E4151215E007F091919
:1001560029460046494949310001017F0101003F16
:100166004040403F001F2040201F003F4038403F96
:1001760000631408146300070870080700615149FA
:10018600454300007F4141000002040810200000A2
:1001960041417F000004020102040040404040400B
:1001A600000001020400002054545478007F4844A3
:1001B600443800384444442000384444487F0038DA
:1001C6005454541800087E0901020018A4A4A47C03
:1001D600007F080404780000447D400000408084CD
:1001E6007D00007F102844000000417F4000007C15
:1001F60004180478007C0804047800384444443821
:1002060000FC242424180018242418FC007C08046C
:10021600040800485454542000043F444020003C45
:100226004040207C001C2040201C003C4030403CCC
:10023600004428102844001CA0A0A07C004464545C
:100246004C441414141414140000000000000000A0
:100256000000000000000000000000F800000000A0
:10026600000000333000000000100C06100C0600E1
:10027600000000000000000040C07840C078400048
:10028600043F04043F040400007088FC08300000AA
:10029600001820FF211E0000F008F000E018000002
:1002A60000211C031E211E0000F0088870000000BB
:1002B6001E2123241927211010160E00000000000D
:1002C6000000000000000000000000E0180402002A
:1002D600000000071820400000020418E00000009B
:1002E6000040201807000000404080F08040400099
:1002F6000202010F01020200000000F000000000EF
:100306000101011F010101000000000000000000C2
:1003160080B0700000000000000000000000000037
:1003260000010101010101010000000000000000C0
:10033600003030000000000000000000806018045B
:10034600006018060100000000E010080810E00038
:10035600000F102020100F00001010F80000000001
:100366000020203F20200000007008080888700048
:1003760000302824222130000030088888483000C8
:100386000018202020110E000000C02010F80000E8
:1003960000070424243F240000F808888808080081
:1003A6000019212020110E0000E010888818000096
:1003B600000F112020110E0000380808C838080068
:1003C6000000003F000000000070880808887000E8
:1003D600001C222121221C0000E010080810E00069
:1003E6000000312222110F00000000C0C0000000F2
:1003F6000000003030000000000000800000000017
:10040600000080600000000000008040201008000E
:1004160000010204081020004040404040404000D7
:1004260004040404040404000008102040800000B2
:100436000020100804020100007048080808F000B7
:100446000000003036010000C030C828E810E00087
:100456000718272423140B000000C038E000000012
:10046600203C23020227382008F88888887000007C
:10047600203F202020110E00C03008080808380050
:10048600071820202010080008F808080810E000C7
:10049600203F202020100F0008F88888E808100068
:1004A600203F20202320180008F88888E80810003C
:1004B600203F200003000000C03008080838000074
:1004C60007182020221E020008F808000008F80875
:1004D600203F210101213F20000808F808080000FC
:1004E6000020203F2020000000000808F80808002F
:1004F600C08080807F00000008F888C028180800A7
:10050600203F20012638200008F8080000000000DF
:10051600203F20202020300008F8F800F8F80800D6
:10052600203F003F003F200008F830C00008F808D0
:10053600203F200007183F00E01008080810E000E0
:100546000F10202020100F0008F808080808F000F7
:10055600203F210101010000E01008080810E0001A
:100566000F18242438504F0008F8888888887000AF
:10057600203F2000030C302000708808080838004F
:100586000038202121221C00180808F80808180045
:100596000000203F2000000008F808000008F808C6
:1005A600001F202020201F000878880000C8380877
:1005B600000007380E010000F80800F80008F800EF
:1005C600033C0700073C0300081868808068180889
:1005D60020302C03032C30200838C800C838080007
:1005E6000000203F2000000010080808C838080056
:1005F6002038262120201800000000FE02020200FA
:100606000000007F40404000000C30C000000000A9
:10061600000000010638C00000020202FE000000D1
:10062600004040407F000000000004020202040077
:1006360000000000000000000000000000000000B4
:10064600808080808080808000020204000000009C
:100656000000000000000000000080808080000094
:100666000019242222223F2008F800808000000082
:10067600003F112020110E00000000808080000045
:10068600000E112020201100000000808088F80054
:10069600000E112020103F20000080808080000086
:1006A600001F222222221300008080F088888818EA
:1006B6000020203F202000000000808080808000F5
:1006C600006B94949493600008F80080808000008A
:1006D600203F210000203F20008098980000000065
:1006E6000020203F20200000000000809898000095
:1006F60000C08080807F000008F8000080808000B5
:10070600203F24022D302000000808F800000000D9
:100716000020203F20200000808080808080800094
:10072600203F20003F20003F808000808080000026
:10073600203F210000203F200000808080800000B4
:10074600001F202020201F008080008080000000E5
:1007560080FFA12020110E00000000808080800014
:10076600000E112020A0FF80808080008080800005
:1007760020203F2120000100000080808080800032
:100786000033242424241900008080E080800000A7
:100796000000001F202000008080000000808000F4
:1007A600001F202020103F20808080000080808055
:1007B60000010E30080601008080008000808080E5
:1007C6000F300C030C300F0000808000808080000A
:1007D6000020312E0E312000808080000080808035
:1007E60080818E70180601000080808080808000E5
:1007F6000021302C2221300000000000807C020203
:1008060000000000003F404000000000FF00000024
:1008160000000000FF0000000002027C80000000D3
:100826000040403F000000000006010102020404EF
:080836000000000000000000BA
:030C4A00012A007C
:100CC5007E08C286C283AD061EED6015EF30E704CF
:100CD500D2848002C284D28300C283EF25E0FF80E4
:010CE500E529
:010CE60022EB
:060C78003EF583E493FF4A
:100C7E007E08D286C283AD061EED6015EF30E70406
:100C8E00D2848002C284D28300C283EF25E0FF802B
:010C9E00E570
:010C9F002232
:100CE700AC07ED24B0FF120CC5EC54F0C4540F440C
:0C0CF70010FF120CC5EC540FFF020CC5DE
:070E2100EF44AEFF020CC517
:0C0DB300AC077FD5120CC5AF04020CC5C4
:0C0DBF00AC077FA8120CC5AF04020CC5E5
:0C0DCB00AC077FD3120CC5AF04020CC5AE
:070E2800EF4440FF020CC57E
:0C0DD700AC077F20120CC5AF04020CC555
:0E0D8A00AC077F8D120CC5EC4410FF020CC5A7
:070E2F00EF44A0FF020CC517
:070E3600EF44C0FF020CC5F0
:0E0D9800AC077FDA120CC5EC4402FF020CC55A
:0C0DE300AC077F81120CC5AF04020CC5E8
:0C0DEF00AC077FD9120CC5AF04020CC584
:0C0DFB00AC077FDB120CC5AF04020CC576
:070E3D00EF44A4FF020CC505
:070E4400EF44A6FF020CC5FC
:020CA000AC079F
:100CA200E4FBEB24B0FF120CC5E4FF120CC57F106D
:100CB200120CC5E4FAAF04120C7E0ABA80F70BBB21
:020CC20008E048
:010CC400220D
:100A6C00D283C285E4FF000FBF64FBD285E4FF1282
:100A7C000E217F80120DB37F3F120DBFE4FF120DCC
:100A8C00CBE4FF120E287F04120D8A7F02120DD7C1
:100A9C007F01120E2F7F08120E367F10120D987FD9
:100AAC00CF120DE37FF1120DEF7F40120DFBE4FF2F
:100ABC00120E3DE4FF120E447F01120E21E4FF12D0
:080ACC000CA0E4FDFF120CE791
:010AD40022FF
:0A08D9008F1C8D1D8B1E8A1F8920C5
:1008E300E51D25E0F51DE4F521AB1EAA1FA9208512
:1008F3002182758300120857606E24E0FBE51CD348
:1009030094784007E4F51C051D051DAD1DAF1C12B1
:100913000CE7E4FCEB75F010A4FFEC7583002FFFEC
:10092300E58335F0FE744E2FF5827402120C780CB9
:10093300BC08E1E51D04FDAF1C120CE7E4FCEB75FC
:10094300F010A4FFEC7583002FFFE58335F0FE74F0
:10095300562FF5827402120C780CBC08E17408253A
:080963001CF51C05210208EC43
:01096B002269
:050B8C00AD022430FB66
:100B9100EB24E0FBEFD3947A4003E4FF0D120CE762
:100BA100E4FC75F006EBA42426F582E5F03400F5AB
:100BB10083E5822CF582E43583120C790CBC06E2C4
:010BC1002211
:0609F8008B1CAA05A907F3
:1009FE00C3E51C6480948050167B2D120B91AF1CA6
:100A0E00EF3395E0FEC3E49FFFE49E8F1F8011AF8E
:100A1E0001AD027B2B120B91AF1CEF3395E08F1FB4
:100A2E00E51F75F06484FEE51F75F06484E5F075CE
:100A3E00F00A84F51DE51F75F00A8485F01EE92481
:100A4E0006FFEE120B8CE9240CFFE51D120B8CE950
:0D0A5E002412FFAD02E51E2430FB120B91A7
:010A6B002268
:030E67000208D9A5
:030E6A000209F882
:0300000002096C86
:0C096C00787FE4F6D8FD75812A0209B3FB
:10083E00BB010689828A83E0225002E722BBFE02B8
:09084E00E32289828A83E49322EB
:10085700BB010CE58229F582E5833AF583E0225056
:1008670006E92582F8E622BBFE06E92582F8E222A0
:0D087700E58229F582E5833AF583E49322BA
:10088400BC000BBE0029EF8DF084FFADF022E4CC58
:10089400F875F008EF2FFFEE33FEEC33FCEE9DEC21
:1008A400984005FCEE9DFE0FD5F0E9E4CEFD22ED67
:1008B400F8F5F0EE8420D21CFEADF075F008EF2FB1
:1008C400FFED33FD4007985006D5F0F222C398FDA2
:0508D4000FD5F0EA223F
:10097800020BC2E493A3F8E493A34003F68001F2C8
:1009880008DFF48029E493A3F85407240CC8C33380
:10099800C4540F4420C8834004F456800146F6DF4F
:1009A800E4800B0102040810204080900C24E47EAF
:1009B800019360BCA3FF543F30E509541FFEE49344
:1009C800A360010ECF54C025E060A840B8E493A30B
:1009D800FAE493A3F8E493A3C8C582C8CAC583CA36
:1009E800F0A3C8C582C8CAC583CADFE9DEE780BEEE
:010C4D0000A6
:00000001FF
