:030C800001290047
:100DCA00759850438920758DFDD28EC2ABD2AC2264
:080003008F993099FDC299228A
:100DB70012083EFF600C120003740129F9E43AFAA5
:030DC70080EE2299
:0300230002000ECA
:10000E00C0E0C0D0309808C298E59924D0F529D028
:04001E00D0D0E0322C
:0A0E7600EF1F70011E144E70F722EA
:100CAA00E4FBFAAC06AD07D3ED9400EC94004014D3
:100CBA007A007B6EEB1B70011AEB4A70F7ED1D7020
:0A0CCA00E61C80E3E4FFFE020E7654
:080C83000224000002220064BB
:060EB100120EB7020EBC98
:100BC8008C118D128B13C3E5259523E524952240BE
:100BD80005E4F524F525EF1460101460162402705E
:100BE80015AF12AE11120D5F800CAF12AE11120DBF
:100BF800758003120EB7E51324FC600E14601224EE
:100C0800027011AF15AE14020D8BAF15AE14020DA4
:050C1800A1120EBC2238
:100D5F00D292C293D3E5259FE5249E5004D2928070
:060D6F0002C292C29322B1
:100D7500C292D293D3E5259FE5249E5004D2938059
:060D850002C293C292229B
:050EB700C292C293226B
:100D8B00D294C295D3E5259FE5249E5004D294803E
:060D9B0002C294C2952281
:100DA100C294D295D3E5259FE5249E5004D2958027
:060DB10002C295C294226B
:050EBC00C294C2952262
:0D0E1500787A69742D586961204A6965007A
:10096C00120DEA7FF47E01120CAA7BFF7A0E791528
:10097C00E4FD7F14120ECDE5297008120EB7120E8D
:10098C00BC8028E529B401107F647E00120D5F7FC6
:10099C00647E00120D8B8013E529B402137F647EF4
:1009AC0000120D757F647E00120DA1120EC9802EEF
:1009BC00E529B403137F647E00120D5F7F647E0013
:1009CC00120D8B120EC18016E529B404117F647EC2
:1009DC0000120D5F7F647E00120D8B120EC5E52A8E
:1009EC0064017093F52AAB297D027F0A120ED08028
:0109FC008674
:100C8B000117C8011800011B0D011A1101160F01E4
:020C9B0019003E
:070E8000E4F51885161922A4
:100C5300E518B51703E4F518EF14600C14600E24BF
:100C630002700D120EC18008120EC58003120EC948
:0D0C7300E518D395195003D29022C29022AB
:040EC100851B192252
:040EC500851A19224F
:040EC900851619224F
:090C9D00012800012600012700D6
:100DDA00438901758CFF758AA6D2AFD2A9D28C221B
:03000B00020B667F
:100B6600C0E0C0F0C0D075D008C28C758CFF758A05
:100B7600A60528E528C3940A40287528000526E519
:100B8600262401FFE433FE7C007DC8120884ED7044
:100B960011F526752A010527E527C394FA40037542
:100BA60027000518E518B51703751800E518D3953D
:100BB600195004D2908002C290D28CD0D0D0F0D0FE
:020BC600E0321B
:0F0DEA00120E80120EB1120AFD120DCA020DDA9E
:100026000000000000000000002F00000000070094
:10003600070000147F147F1400242A7F2A1200620E
:1000460064081323003649552250000005030000BA
:1000560000001C224100000041221C000014083E42
:1000660008140008083E0808000000A06000000808
:10007600080808080000606000000020100804025C
:10008600003E5149453E0000427F4000004261511A
:100096004946002141454B31001814127F100027B4
:1000A60045454539003C4A49493000017109050377
:1000B60000364949493600064949291E00003636A8
:1000C600000000005636000000081422410000140B
:1000D60014141414000041221408000201510906E8
:1000E60000324959513E007C1211127C007F494969
:1000F6004936003E41414122007F4141221C007F9A
:1001060049494941007F09090901003E4149497AA7
:10011600007F0808087F0000417F41000020404121
:100126003F01007F08142241007F40404040007F8D
:10013600020C027F007F0408107F003E4141413ED1
:10014600007F09090906003E4151215E007F091919
:1001560029460046494949310001017F0101003F16
:100166004040403F001F2040201F003F4038403F96
:1001760000631408146300070870080700615149FA
:10018600454300007F4141000002040810200000A2
:1001960041417F000004020102040040404040400B
:1001A600000001020400002054545478007F4844A3
:1001B600443800384444442000384444487F0038DA
:1001C6005454541800087E0901020018A4A4A47C03
:1001D600007F080404780000447D400000408084CD
:1001E6007D00007F102844000000417F4000007C15
:1001F60004180478007C0804047800384444443821
:1002060000FC242424180018242418FC007C08046C
:10021600040800485454542000043F444020003C45
:100226004040207C001C2040201C003C4030403CCC
:10023600004428102844001CA0A0A07C004464545C
:100246004C441414141414140000000000000000A0
:100256000000000000000000000000F800000000A0
:10026600000000333000000000100C06100C0600E1
:10027600000000000000000040C07840C078400048
:10028600043F04043F040400007088FC08300000AA
:10029600001820FF211E0000F008F000E018000002
:1002A60000211C031E211E0000F0088870000000BB
:1002B6001E2123241927211010160E00000000000D
:1002C6000000000000000000000000E0180402002A
:1002D600000000071820400000020418E00000009B
:1002E6000040201807000000404080F08040400099
:1002F6000202010F01020200000000F000000000EF
:100306000101011F010101000000000000000000C2
:1003160080B0700000000000000000000000000037
:1003260000010101010101010000000000000000C0
:10033600003030000000000000000000806018045B
:10034600006018060100000000E010080810E00038
:10035600000F102020100F00001010F80000000001
:100366000020203F20200000007008080888700048
:1003760000302824222130000030088888483000C8
:100386000018202020110E000000C02010F80000E8
:1003960000070424243F240000F808888808080081
:1003A6000019212020110E0000E010888818000096
:1003B600000F112020110E0000380808C838080068
:1003C6000000003F000000000070880808887000E8
:1003D600001C222121221C0000E010080810E00069
:1003E6000000312222110F00000000C0C0000000F2
:1003F6000000003030000000000000800000000017
:10040600000080600000000000008040201008000E
:1004160000010204081020004040404040404000D7
:1004260004040404040404000008102040800000B2
:100436000020100804020100007048080808F000B7
:100446000000003036010000C030C828E810E00087
:100456000718272423140B000000C038E000000012
:10046600203C23020227382008F88888887000007C
:10047600203F202020110E00C03008080808380050
:10048600071820202010080008F808080810E000C7
:10049600203F202020100F0008F88888E808100068
:1004A600203F20202320180008F88888E80810003C
:1004B600203F200003000000C03008080838000074
:1004C60007182020221E020008F808000008F80875
:1004D600203F210101213F20000808F808080000FC
:1004E6000020203F2020000000000808F80808002F
:1004F600C08080807F00000008F888C028180800A7
:10050600203F20012638200008F8080000000000DF
:10051600203F20202020300008F8F800F8F80800D6
:10052600203F003F003F200008F830C00008F808D0
:10053600203F200007183F00E01008080810E000E0
:100546000F10202020100F0008F808080808F000F7
:10055600203F210101010000E01008080810E0001A
:100566000F18242438504F0008F8888888887000AF
:10057600203F2000030C302000708808080838004F
:100586000038202121221C00180808F80808180045
:100596000000203F2000000008F808000008F808C6
:1005A600001F202020201F000878880000C8380877
:1005B600000007380E010000F80800F80008F800EF
:1005C600033C0700073C0300081868808068180889
:1005D60020302C03032C30200838C800C838080007
:1005E6000000203F2000000010080808C838080056
:1005F6002038262120201800000000FE02020200FA
:100606000000007F40404000000C30C000000000A9
:10061600000000010638C00000020202FE000000D1
:10062600004040407F000000000004020202040077
:1006360000000000000000000000000000000000B4
:10064600808080808080808000020204000000009C
:100656000000000000000000000080808080000094
:100666000019242222223F2008F800808000000082
:10067600003F112020110E00000000808080000045
:10068600000E112020201100000000808088F80054
:10069600000E112020103F20000080808080000086
:1006A600001F222222221300008080F088888818EA
:1006B6000020203F202000000000808080808000F5
:1006C600006B94949493600008F80080808000008A
:1006D600203F210000203F20008098980000000065
:1006E6000020203F20200000000000809898000095
:1006F60000C08080807F000008F8000080808000B5
:10070600203F24022D302000000808F800000000D9
:100716000020203F20200000808080808080800094
:10072600203F20003F20003F808000808080000026
:10073600203F210000203F200000808080800000B4
:10074600001F202020201F008080008080000000E5
:1007560080FFA12020110E00000000808080800014
:10076600000E112020A0FF80808080008080800005
:1007760020203F2120000100000080808080800032
:100786000033242424241900008080E080800000A7
:100796000000001F202000008080000000808000F4
:1007A600001F202020103F20808080000080808055
:1007B60000010E30080601008080008000808080E5
:1007C6000F300C030C300F0000808000808080000A
:1007D6000020312E0E312000808080000080808035
:1007E60080818E70180601000080808080808000E5
:1007F6000021302C2221300000000000807C020203
:1008060000000000003F404000000000FF00000024
:1008160000000000FF0000000002027C80000000D3
:100826000040403F000000000006010102020404EF
:080836000000000000000000BA
:030CA600012A0020
:100D21007E08C286C283AD061EED6015EF30E70472
:100D3100D2848002C284D28300C283EF25E0FF8087
:010D4100E5CC
:010D4200228E
:060CD4003EF583E493FFEE
:100CDA007E08D286C283AD061EED6015EF30E704AA
:100CEA00D2848002C284D28300C283EF25E0FF80CF
:010CFA00E514
:010CFB0022D6
:100D4300AC07ED24B0FF120D21EC54F0C4540F4452
:0C0D530010FF120D21EC540FFF020D21C7
:070E8700EF44AEFF020D2154
:0C0E2200AC077FD5120D21AF04020D219A
:0C0E2E00AC077FA8120D21AF04020D21BB
:0C0E3A00AC077FD3120D21AF04020D2184
:070E8E00EF4440FF020D21BB
:0C0E4600AC077F20120D21AF04020D212B
:0E0DF900AC077F8D120D21EC4410FF020D217E
:070E9500EF44A0FF020D2154
:070E9C00EF44C0FF020D212D
:0E0E0700AC077FDA120D21EC4402FF020D2130
:0C0E5200AC077F81120D21AF04020D21BE
:0C0E5E00AC077FD9120D21AF04020D215A
:0C0E6A00AC077FDB120D21AF04020D214C
:070EA300EF44A4FF020D2142
:070EAA00EF44A6FF020D2139
:020CFC00AC0743
:100CFE00E4FBEB24B0FF120D21E4FF120D217F1057
:100D0E00120D21E4FAAF04120CDA0ABA80F70BBB0B
:020D1E0008E0EB
:010D200022B0
:100AFD00D283C285E4FF000FBF64FBD285E4FF12F1
:100B0D000E877F80120E227F3F120E2EE4FF120EF3
:100B1D003AE4FF120E8E7F04120DF97F02120E467B
:100B2D007F01120E957F08120E9C7F10120E077F0B
:100B3D00CF120E527FF1120E5E7F40120E6AE4FF4D
:100B4D00120EA3E4FF120EAA7F01120E87E4FF120C
:080B5D000CFCE4FDFF120D4346
:010B6500226D
:0A08D9008F1C8D1D8B1E8A1F8920C5
:1008E300E51D25E0F51DE4F521AB1EAA1FA9208512
:1008F3002182758300120857606E24E0FBE51CD348
:1009030094784007E4F51C051D051DAD1DAF1C12B1
:100913000D43E4FCEB75F010A4FFEC7583002FFF8F
:10092300E58335F0FE744E2FF5827402120CD40C5D
:10093300BC08E1E51D04FDAF1C120D43E4FCEB759F
:10094300F010A4FFEC7583002FFFE58335F0FE74F0
:10095300562FF5827402120CD40CBC08E1740825DE
:080963001CF51C05210208EC43
:01096B002269
:050C1D00AD022430FBD4
:100C2200EB24E0FBEFD3947A4003E4FF0D120D4373
:100C3200E4FC75F006EBA42426F582E5F03400F519
:100C420083E5822CF582E43583120CD50CBC06E2D6
:010C5200227F
:060A89008B1CAA05A90761
:100A8F00C3E51C6480948050167B2D120C22AF1C82
:100A9F00EF3395E0FEC3E49FFFE49E8F1F8011AFFD
:100AAF0001AD027B2B120C22AF1CEF3395E08F1F91
:100ABF00E51F75F06484FEE51F75F06484E5F0753D
:100ACF00F00A84F51DE51F75F00A8485F01EE924F0
:100ADF0006FFEE120C1DE9240CFFE51D120C1DE99B
:0D0AEF002412FFAD02E51E2430FB120C2284
:010AFC0022D7
:030ECD000208D93F
:030ED000020A898A
:030000000209FDF5
:0C09FD00787FE4F6D8FD75812A020A44D8
:10083E00BB010689828A83E0225002E722BBFE02B8
:09084E00E32289828A83E49322EB
:10085700BB010CE58229F582E5833AF583E0225056
:1008670006E92582F8E622BBFE06E92582F8E222A0
:0D087700E58229F582E5833AF583E49322BA
:10088400BC000BBE0029EF8DF084FFADF022E4CC58
:10089400F875F008EF2FFFEE33FEEC33FCEE9DEC21
:1008A400984005FCEE9DFE0FD5F0E9E4CEFD22ED67
:1008B400F8F5F0EE8420D21CFEADF075F008EF2FB1
:1008C400FFED33FD4007985006D5F0F222C398FDA2
:0508D4000FD5F0EA223F
:100A090002096CE493A3F8E493A34003F68001F28E
:100A190008DFF48029E493A3F85407240CC8C333EE
:100A2900C4540F4420C8834004F456800146F6DFBD
:100A3900E4800B0102040810204080900C80E47EC1
:100A4900019360BCA3FF543F30E509541FFEE493B2
:100A5900A360010ECF54C025E060A840B8E493A379
:100A6900FAE493A3F8E493A3C8C582C8CAC583CAA4
:100A7900F0A3C8C582C8CAC583CADFE9DEE780BE5C
:010CA900004A
:00000001FF
