:0101020022DA
:0D00F5001200E51201027FF41200D080FE1F
:03000800DFFE22F6
:1000D000AE07AF061EEF600C7FF51200087FF51229
:0500E000000880EE2283
:0400030002080000EF
:1000E500758901758CFF758A9BD2A9D2AFD28C22F6
:03000B0002009A56
:10009A00C0E0C0D0C28C758CFF758A9B0509E50942
:1000AA007002050864C845087004F508F509D3E527
:1000BA0009940FE50894005004D2908002C290D2AD
:0600CA008CD0D0D0E03222
:0300000002000EED
:0C000E00787FE4F6D8FD758109020055EA
:10001A000200F5E493A3F8E493A34003F68001F207
:10002A0008DFF48029E493A3F85407240CC8C333E7
:10003A00C4540F4420C8834004F456800146F6DFB6
:10004A00E4800B0102040810204080900003E47E43
:10005A00019360BCA3FF543F30E509541FFEE493AB
:10006A00A360010ECF54C025E060A840B8E493A372
:10007A00FAE493A3F8E493A3C8C582C8CAC583CA9D
:10008A00F0A3C8C582C8CAC583CADFE9DEE780BE55
:0100070000F8
:00000001FF
